{
  "contractName": "AddressManager",
  "abi": [
    {
      "constant": false,
      "inputs": [
        {
          "name": "_newExecutor",
          "type": "address"
        }
      ],
      "name": "transferExecutorOwnership",
      "outputs": [],
      "payable": false,
      "stateMutability": "nonpayable",
      "type": "function"
    },
    {
      "constant": true,
      "inputs": [
        {
          "name": "",
          "type": "uint256"
        },
        {
          "name": "",
          "type": "uint256"
        }
      ],
      "name": "contracts",
      "outputs": [
        {
          "name": "contractAddress",
          "type": "address"
        },
        {
          "name": "created",
          "type": "uint256"
        },
        {
          "name": "status",
          "type": "uint8"
        }
      ],
      "payable": false,
      "stateMutability": "view",
      "type": "function"
    },
    {
      "constant": false,
      "inputs": [
        {
          "name": "_newOwner",
          "type": "address"
        }
      ],
      "name": "transferSuperOwnership",
      "outputs": [],
      "payable": false,
      "stateMutability": "nonpayable",
      "type": "function"
    },
    {
      "constant": true,
      "inputs": [],
      "name": "superOwner",
      "outputs": [
        {
          "name": "",
          "type": "address"
        }
      ],
      "payable": false,
      "stateMutability": "view",
      "type": "function"
    },
    {
      "constant": true,
      "inputs": [],
      "name": "owner",
      "outputs": [
        {
          "name": "",
          "type": "address"
        }
      ],
      "payable": false,
      "stateMutability": "view",
      "type": "function"
    },
    {
      "constant": true,
      "inputs": [],
      "name": "executor",
      "outputs": [
        {
          "name": "",
          "type": "address"
        }
      ],
      "payable": false,
      "stateMutability": "view",
      "type": "function"
    },
    {
      "constant": false,
      "inputs": [
        {
          "name": "_newOwner",
          "type": "address"
        }
      ],
      "name": "transferOwnership",
      "outputs": [],
      "payable": false,
      "stateMutability": "nonpayable",
      "type": "function"
    },
    {
      "anonymous": false,
      "inputs": [
        {
          "indexed": false,
          "name": "_typeId",
          "type": "uint256"
        },
        {
          "indexed": false,
          "name": "_contractAddress",
          "type": "address"
        }
      ],
      "name": "Added",
      "type": "event"
    },
    {
      "anonymous": false,
      "inputs": [
        {
          "indexed": false,
          "name": "_typeId",
          "type": "uint256"
        },
        {
          "indexed": false,
          "name": "_index",
          "type": "uint256"
        },
        {
          "indexed": false,
          "name": "_status",
          "type": "uint8"
        }
      ],
      "name": "ChangedStatus",
      "type": "event"
    },
    {
      "anonymous": false,
      "inputs": [
        {
          "indexed": true,
          "name": "_from",
          "type": "address"
        },
        {
          "indexed": true,
          "name": "_to",
          "type": "address"
        }
      ],
      "name": "OwnershipTransferred",
      "type": "event"
    },
    {
      "constant": false,
      "inputs": [
        {
          "name": "_typeId",
          "type": "uint256"
        },
        {
          "name": "_contractAddress",
          "type": "address"
        }
      ],
      "name": "add",
      "outputs": [],
      "payable": false,
      "stateMutability": "nonpayable",
      "type": "function"
    },
    {
      "constant": true,
      "inputs": [
        {
          "name": "_typeId",
          "type": "uint256"
        },
        {
          "name": "_index",
          "type": "uint256"
        }
      ],
      "name": "get",
      "outputs": [
        {
          "name": "",
          "type": "address"
        },
        {
          "name": "",
          "type": "uint256"
        },
        {
          "name": "",
          "type": "uint8"
        }
      ],
      "payable": false,
      "stateMutability": "view",
      "type": "function"
    },
    {
      "constant": true,
      "inputs": [
        {
          "name": "_typeId",
          "type": "uint256"
        }
      ],
      "name": "getLength",
      "outputs": [
        {
          "name": "",
          "type": "uint256"
        }
      ],
      "payable": false,
      "stateMutability": "view",
      "type": "function"
    },
    {
      "constant": false,
      "inputs": [
        {
          "name": "_typeId",
          "type": "uint256"
        },
        {
          "name": "_index",
          "type": "uint256"
        },
        {
          "name": "_status",
          "type": "uint8"
        }
      ],
      "name": "changeStatus",
      "outputs": [],
      "payable": false,
      "stateMutability": "nonpayable",
      "type": "function"
    }
  ],
  "bytecode": "0x608060405233600260006101000a81548173ffffffffffffffffffffffffffffffffffffffff021916908373ffffffffffffffffffffffffffffffffffffffff160217905550336000806101000a81548173ffffffffffffffffffffffffffffffffffffffff021916908373ffffffffffffffffffffffffffffffffffffffff16021790555033600160006101000a81548173ffffffffffffffffffffffffffffffffffffffff021916908373ffffffffffffffffffffffffffffffffffffffff160217905550611085806100d56000396000f3006080604052600436106100af576000357c0100000000000000000000000000000000000000000000000000000000900463ffffffff1680630986e647146100b4578063131b81ad146100f557806315e3becb146101385780632b8bbbe8146101c357806362abb56014610210578063669e48aa1461025357806387dcd2b6146102de5780638da5cb5b14610335578063c34c08e51461038c578063f2fde38b146103e3578063fdedb51414610426575b600080fd5b3480156100c057600080fd5b506100df6004803603810190808035906020019092919050505061046a565b6040518082815260200191505060405180910390f35b34801561010157600080fd5b50610136600480360381019080803573ffffffffffffffffffffffffffffffffffffffff16906020019092919050505061048a565b005b34801561014457600080fd5b5061016d6004803603810190808035906020019092919080359060200190929190505050610666565b604051808473ffffffffffffffffffffffffffffffffffffffff1673ffffffffffffffffffffffffffffffffffffffff1681526020018381526020018260ff1660ff168152602001935050505060405180910390f35b3480156101cf57600080fd5b5061020e60048036038101908080359060200190929190803573ffffffffffffffffffffffffffffffffffffffff1690602001909291905050506106d9565b005b34801561021c57600080fd5b50610251600480360381019080803573ffffffffffffffffffffffffffffffffffffffff1690602001909291905050506109a5565b005b34801561025f57600080fd5b506102886004803603810190808035906020019092919080359060200190929190505050610b2a565b604051808473ffffffffffffffffffffffffffffffffffffffff1673ffffffffffffffffffffffffffffffffffffffff1681526020018381526020018260ff1660ff168152602001935050505060405180910390f35b3480156102ea57600080fd5b506102f3610bff565b604051808273ffffffffffffffffffffffffffffffffffffffff1673ffffffffffffffffffffffffffffffffffffffff16815260200191505060405180910390f35b34801561034157600080fd5b5061034a610c25565b604051808273ffffffffffffffffffffffffffffffffffffffff1673ffffffffffffffffffffffffffffffffffffffff16815260200191505060405180910390f35b34801561039857600080fd5b506103a1610c4a565b604051808273ffffffffffffffffffffffffffffffffffffffff1673ffffffffffffffffffffffffffffffffffffffff16815260200191505060405180910390f35b3480156103ef57600080fd5b50610424600480360381019080803573ffffffffffffffffffffffffffffffffffffffff169060200190929190505050610c70565b005b34801561043257600080fd5b506104686004803603810190808035906020019092919080359060200190929190803560ff169060200190929190505050610e4a565b005b600060036000838152602001908152602001600020805490509050919050565b6000809054906101000a900473ffffffffffffffffffffffffffffffffffffffff1673ffffffffffffffffffffffffffffffffffffffff163373ffffffffffffffffffffffffffffffffffffffff1614806105325750600260009054906101000a900473ffffffffffffffffffffffffffffffffffffffff1673ffffffffffffffffffffffffffffffffffffffff163373ffffffffffffffffffffffffffffffffffffffff16145b15156105a6576040517f08c379a00000000000000000000000000000000000000000000000000000000081526004018080602001828103825260118152602001807f55736572206973206e6f74206f776e657200000000000000000000000000000081525060200191505060405180910390fd5b8073ffffffffffffffffffffffffffffffffffffffff16600160009054906101000a900473ffffffffffffffffffffffffffffffffffffffff1673ffffffffffffffffffffffffffffffffffffffff167f8be0079c531659141344cd1fd0a4f28419497f9722a3daafe3b4186f6b6457e060405160405180910390a380600160006101000a81548173ffffffffffffffffffffffffffffffffffffffff021916908373ffffffffffffffffffffffffffffffffffffffff16021790555050565b60036020528160005260406000208181548110151561068157fe5b9060005260206000209060030201600091509150508060000160009054906101000a900473ffffffffffffffffffffffffffffffffffffffff16908060010154908060020160009054906101000a900460ff16905083565b6000809054906101000a900473ffffffffffffffffffffffffffffffffffffffff1673ffffffffffffffffffffffffffffffffffffffff163373ffffffffffffffffffffffffffffffffffffffff1614806107815750600160009054906101000a900473ffffffffffffffffffffffffffffffffffffffff1673ffffffffffffffffffffffffffffffffffffffff163373ffffffffffffffffffffffffffffffffffffffff16145b806107d95750600260009054906101000a900473ffffffffffffffffffffffffffffffffffffffff1673ffffffffffffffffffffffffffffffffffffffff163373ffffffffffffffffffffffffffffffffffffffff16145b151561084d576040517f08c379a000000000000000000000000000000000000000000000000000000000815260040180806020018281038252600b8152602001807f4e6f7420616c6c6f77656400000000000000000000000000000000000000000081525060200191505060405180910390fd5b600360008381526020019081526020016000206060604051908101604052808373ffffffffffffffffffffffffffffffffffffffff168152602001428152602001600060ff168152509080600181540180825580915050906001820390600052602060002090600302016000909192909190915060008201518160000160006101000a81548173ffffffffffffffffffffffffffffffffffffffff021916908373ffffffffffffffffffffffffffffffffffffffff1602179055506020820151816001015560408201518160020160006101000a81548160ff021916908360ff1602179055505050507f8ba5cdc385bc6c37c9a05ad09fbc238589c43602f4cee09c46856027df8a935a8282604051808381526020018273ffffffffffffffffffffffffffffffffffffffff1673ffffffffffffffffffffffffffffffffffffffff1681526020019250505060405180910390a15050565b600260009054906101000a900473ffffffffffffffffffffffffffffffffffffffff1673ffffffffffffffffffffffffffffffffffffffff163373ffffffffffffffffffffffffffffffffffffffff16141515610a6a576040517f08c379a00000000000000000000000000000000000000000000000000000000081526004018080602001828103825260118152602001807f55736572206973206e6f74206f776e657200000000000000000000000000000081525060200191505060405180910390fd5b8073ffffffffffffffffffffffffffffffffffffffff16600260009054906101000a900473ffffffffffffffffffffffffffffffffffffffff1673ffffffffffffffffffffffffffffffffffffffff167f8be0079c531659141344cd1fd0a4f28419497f9722a3daafe3b4186f6b6457e060405160405180910390a380600260006101000a81548173ffffffffffffffffffffffffffffffffffffffff021916908373ffffffffffffffffffffffffffffffffffffffff16021790555050565b60008060006003600086815260200190815260200160002084815481101515610b4f57fe5b906000526020600020906003020160000160009054906101000a900473ffffffffffffffffffffffffffffffffffffffff166003600087815260200190815260200160002085815481101515610ba157fe5b9060005260206000209060030201600101546003600088815260200190815260200160002086815481101515610bd357fe5b906000526020600020906003020160020160009054906101000a900460ff169250925092509250925092565b600260009054906101000a900473ffffffffffffffffffffffffffffffffffffffff1681565b6000809054906101000a900473ffffffffffffffffffffffffffffffffffffffff1681565b600160009054906101000a900473ffffffffffffffffffffffffffffffffffffffff1681565b6000809054906101000a900473ffffffffffffffffffffffffffffffffffffffff1673ffffffffffffffffffffffffffffffffffffffff163373ffffffffffffffffffffffffffffffffffffffff161480610d185750600260009054906101000a900473ffffffffffffffffffffffffffffffffffffffff1673ffffffffffffffffffffffffffffffffffffffff163373ffffffffffffffffffffffffffffffffffffffff16145b1515610d8c576040517f08c379a00000000000000000000000000000000000000000000000000000000081526004018080602001828103825260118152602001807f55736572206973206e6f74206f776e657200000000000000000000000000000081525060200191505060405180910390fd5b8073ffffffffffffffffffffffffffffffffffffffff166000809054906101000a900473ffffffffffffffffffffffffffffffffffffffff1673ffffffffffffffffffffffffffffffffffffffff167f8be0079c531659141344cd1fd0a4f28419497f9722a3daafe3b4186f6b6457e060405160405180910390a3806000806101000a81548173ffffffffffffffffffffffffffffffffffffffff021916908373ffffffffffffffffffffffffffffffffffffffff16021790555050565b6000809054906101000a900473ffffffffffffffffffffffffffffffffffffffff1673ffffffffffffffffffffffffffffffffffffffff163373ffffffffffffffffffffffffffffffffffffffff161480610ef25750600160009054906101000a900473ffffffffffffffffffffffffffffffffffffffff1673ffffffffffffffffffffffffffffffffffffffff163373ffffffffffffffffffffffffffffffffffffffff16145b80610f4a5750600260009054906101000a900473ffffffffffffffffffffffffffffffffffffffff1673ffffffffffffffffffffffffffffffffffffffff163373ffffffffffffffffffffffffffffffffffffffff16145b1515610fbe576040517f08c379a000000000000000000000000000000000000000000000000000000000815260040180806020018281038252600b8152602001807f4e6f7420616c6c6f77656400000000000000000000000000000000000000000081525060200191505060405180910390fd5b806003600085815260200190815260200160002083815481101515610fdf57fe5b906000526020600020906003020160020160006101000a81548160ff021916908360ff1602179055507e24b8c3802a74037fb3cdb5d07c13f16bacdc182fa1521a6ab2809647b72d4d838383604051808481526020018381526020018260ff1660ff168152602001935050505060405180910390a15050505600a165627a7a72305820d3840ac345621da9a447aacdbbc8c92936a6d5ca06be9cf2fb00ace769657c270029",
  "source": "pragma solidity ^0.4.23;\n\n import \"./utils/OwnedWithExecutor.sol\";\n import \"./interfaces/IAddressManager.sol\";\n\n contract AddressManager is Owned, IAddressManager {\n\t\n\tstruct Address {\n\t\taddress contractAddress;\n        uint created;\n\t\tuint8 status;\n    }\n\n\tevent Added(uint _typeId, address _contractAddress);\n\tevent ChangedStatus(uint _typeId, uint _index, uint8 _status);\n\t  \n\tmapping (uint => Address[]) public contracts;\n\n\tfunction add(uint _typeId, address _contractAddress) public onlyAllowed {\n\t\tcontracts[_typeId].push(Address(_contractAddress, now, 0));\n\n        emit Added(_typeId, _contractAddress);\n\t}\n\n\tfunction get(uint _typeId, uint _index) public view returns(address, uint, uint8){\n        return (contracts[_typeId][_index].contractAddress,\n\t\t\t\tcontracts[_typeId][_index].created,\n\t\t\t\tcontracts[_typeId][_index].status);\n    }\n\n\tfunction getLength(uint _typeId) public view returns(uint) {\n\t\treturn contracts[_typeId].length;\n\t}\n\n\tfunction changeStatus(uint _typeId, uint _index, uint8 _status) public onlyAllowed{\n        contracts[_typeId][_index].status = _status;\n\n\t\temit ChangedStatus(_typeId, _index, _status);\n    }\n}",
  "sourcePath": "/Users/darius/Documents/Code/git/Aigang/aigang-contracts/contracts/AddressManager.sol",
  "compiler": {
    "name": "solc",
    "version": "0.4.24+commit.e67f0147.Emscripten.clang"
  },
  "schemaVersion": "2.0.1",
  "updatedAt": "2019-02-06T07:50:52.966Z"
}