{
  "contractName": "Owned",
  "abi": [
    {
      "constant": true,
      "inputs": [],
      "name": "superOwner",
      "outputs": [
        {
          "name": "",
          "type": "address"
        }
      ],
      "payable": false,
      "stateMutability": "view",
      "type": "function"
    },
    {
      "constant": true,
      "inputs": [],
      "name": "owner",
      "outputs": [
        {
          "name": "",
          "type": "address"
        }
      ],
      "payable": false,
      "stateMutability": "view",
      "type": "function"
    },
    {
      "constant": true,
      "inputs": [],
      "name": "executor",
      "outputs": [
        {
          "name": "",
          "type": "address"
        }
      ],
      "payable": false,
      "stateMutability": "view",
      "type": "function"
    },
    {
      "inputs": [],
      "payable": false,
      "stateMutability": "nonpayable",
      "type": "constructor"
    },
    {
      "anonymous": false,
      "inputs": [
        {
          "indexed": true,
          "name": "_from",
          "type": "address"
        },
        {
          "indexed": true,
          "name": "_to",
          "type": "address"
        }
      ],
      "name": "OwnershipTransferred",
      "type": "event"
    },
    {
      "constant": false,
      "inputs": [
        {
          "name": "_newOwner",
          "type": "address"
        }
      ],
      "name": "transferOwnership",
      "outputs": [],
      "payable": false,
      "stateMutability": "nonpayable",
      "type": "function"
    },
    {
      "constant": false,
      "inputs": [
        {
          "name": "_newOwner",
          "type": "address"
        }
      ],
      "name": "transferSuperOwnership",
      "outputs": [],
      "payable": false,
      "stateMutability": "nonpayable",
      "type": "function"
    },
    {
      "constant": false,
      "inputs": [
        {
          "name": "_newExecutor",
          "type": "address"
        }
      ],
      "name": "transferExecutorOwnership",
      "outputs": [],
      "payable": false,
      "stateMutability": "nonpayable",
      "type": "function"
    }
  ],
  "bytecode": "0x608060405234801561001057600080fd5b5033600260006101000a81548173ffffffffffffffffffffffffffffffffffffffff021916908373ffffffffffffffffffffffffffffffffffffffff160217905550336000806101000a81548173ffffffffffffffffffffffffffffffffffffffff021916908373ffffffffffffffffffffffffffffffffffffffff16021790555033600160006101000a81548173ffffffffffffffffffffffffffffffffffffffff021916908373ffffffffffffffffffffffffffffffffffffffff160217905550610823806100e26000396000f300608060405260043610610078576000357c0100000000000000000000000000000000000000000000000000000000900463ffffffff168063131b81ad1461007d57806362abb560146100c057806387dcd2b6146101035780638da5cb5b1461015a578063c34c08e5146101b1578063f2fde38b14610208575b600080fd5b34801561008957600080fd5b506100be600480360381019080803573ffffffffffffffffffffffffffffffffffffffff16906020019092919050505061024b565b005b3480156100cc57600080fd5b50610101600480360381019080803573ffffffffffffffffffffffffffffffffffffffff169060200190929190505050610427565b005b34801561010f57600080fd5b506101186105ac565b604051808273ffffffffffffffffffffffffffffffffffffffff1673ffffffffffffffffffffffffffffffffffffffff16815260200191505060405180910390f35b34801561016657600080fd5b5061016f6105d2565b604051808273ffffffffffffffffffffffffffffffffffffffff1673ffffffffffffffffffffffffffffffffffffffff16815260200191505060405180910390f35b3480156101bd57600080fd5b506101c66105f7565b604051808273ffffffffffffffffffffffffffffffffffffffff1673ffffffffffffffffffffffffffffffffffffffff16815260200191505060405180910390f35b34801561021457600080fd5b50610249600480360381019080803573ffffffffffffffffffffffffffffffffffffffff16906020019092919050505061061d565b005b6000809054906101000a900473ffffffffffffffffffffffffffffffffffffffff1673ffffffffffffffffffffffffffffffffffffffff163373ffffffffffffffffffffffffffffffffffffffff1614806102f35750600260009054906101000a900473ffffffffffffffffffffffffffffffffffffffff1673ffffffffffffffffffffffffffffffffffffffff163373ffffffffffffffffffffffffffffffffffffffff16145b1515610367576040517f08c379a00000000000000000000000000000000000000000000000000000000081526004018080602001828103825260118152602001807f55736572206973206e6f74206f776e657200000000000000000000000000000081525060200191505060405180910390fd5b8073ffffffffffffffffffffffffffffffffffffffff16600160009054906101000a900473ffffffffffffffffffffffffffffffffffffffff1673ffffffffffffffffffffffffffffffffffffffff167f8be0079c531659141344cd1fd0a4f28419497f9722a3daafe3b4186f6b6457e060405160405180910390a380600160006101000a81548173ffffffffffffffffffffffffffffffffffffffff021916908373ffffffffffffffffffffffffffffffffffffffff16021790555050565b600260009054906101000a900473ffffffffffffffffffffffffffffffffffffffff1673ffffffffffffffffffffffffffffffffffffffff163373ffffffffffffffffffffffffffffffffffffffff161415156104ec576040517f08c379a00000000000000000000000000000000000000000000000000000000081526004018080602001828103825260118152602001807f55736572206973206e6f74206f776e657200000000000000000000000000000081525060200191505060405180910390fd5b8073ffffffffffffffffffffffffffffffffffffffff16600260009054906101000a900473ffffffffffffffffffffffffffffffffffffffff1673ffffffffffffffffffffffffffffffffffffffff167f8be0079c531659141344cd1fd0a4f28419497f9722a3daafe3b4186f6b6457e060405160405180910390a380600260006101000a81548173ffffffffffffffffffffffffffffffffffffffff021916908373ffffffffffffffffffffffffffffffffffffffff16021790555050565b600260009054906101000a900473ffffffffffffffffffffffffffffffffffffffff1681565b6000809054906101000a900473ffffffffffffffffffffffffffffffffffffffff1681565b600160009054906101000a900473ffffffffffffffffffffffffffffffffffffffff1681565b6000809054906101000a900473ffffffffffffffffffffffffffffffffffffffff1673ffffffffffffffffffffffffffffffffffffffff163373ffffffffffffffffffffffffffffffffffffffff1614806106c55750600260009054906101000a900473ffffffffffffffffffffffffffffffffffffffff1673ffffffffffffffffffffffffffffffffffffffff163373ffffffffffffffffffffffffffffffffffffffff16145b1515610739576040517f08c379a00000000000000000000000000000000000000000000000000000000081526004018080602001828103825260118152602001807f55736572206973206e6f74206f776e657200000000000000000000000000000081525060200191505060405180910390fd5b8073ffffffffffffffffffffffffffffffffffffffff166000809054906101000a900473ffffffffffffffffffffffffffffffffffffffff1673ffffffffffffffffffffffffffffffffffffffff167f8be0079c531659141344cd1fd0a4f28419497f9722a3daafe3b4186f6b6457e060405160405180910390a3806000806101000a81548173ffffffffffffffffffffffffffffffffffffffff021916908373ffffffffffffffffffffffffffffffffffffffff160217905550505600a165627a7a7230582018b624cc5d101cbed67727baee3e564cadac68506c58d4bad758125f29dd613e0029",
  "source": "pragma solidity ^0.4.23;\n\ncontract Owned {\n    address public owner;\n    address public executor;\n    address public superOwner;\n  \n    event OwnershipTransferred(address indexed _from, address indexed _to);\n\n    constructor() public {\n        superOwner = msg.sender;\n        owner = msg.sender;\n        executor = msg.sender;\n    }\n\n    modifier onlyOwner {\n        require(msg.sender == owner, \"User is not owner\");\n        _;\n    }\n\n    modifier onlySuperOwner {\n        require(msg.sender == superOwner, \"User is not owner\");\n        _;\n    }\n\n    modifier onlyOwnerOrSuperOwner {\n        require(msg.sender == owner || msg.sender == superOwner, \"User is not owner\");\n        _;\n    }\n\n    modifier onlyAllowed {\n        require(msg.sender == owner || msg.sender == executor || msg.sender == superOwner, \"Not allowed\");\n        _;\n    }\n\n    function transferOwnership(address _newOwner) public onlyOwnerOrSuperOwner {\n        emit OwnershipTransferred(owner, _newOwner);\n        owner = _newOwner;\n    }\n\n    function transferSuperOwnership(address _newOwner) public onlySuperOwner {\n        emit OwnershipTransferred(superOwner, _newOwner);\n        superOwner = _newOwner;\n    }\n\n    function transferExecutorOwnership(address _newExecutor) public onlyOwnerOrSuperOwner {\n        emit OwnershipTransferred(executor, _newExecutor);\n        executor = _newExecutor;\n    }\n}",
  "sourcePath": "/Users/darius/Documents/Code/git/Aigang/aigang-contracts/contracts/utils/OwnedWithExecutor.sol",
  "compiler": {
    "name": "solc",
    "version": "0.4.24+commit.e67f0147.Emscripten.clang"
  },
  "schemaVersion": "2.0.1",
  "updatedAt": "2019-02-06T07:50:52.980Z"
}