{
  "contractName": "Pools",
  "abi": [
    {
      "constant": true,
      "inputs": [],
      "name": "CONTRIBUTION_ID",
      "outputs": [
        {
          "name": "",
          "type": "uint256"
        }
      ],
      "payable": false,
      "stateMutability": "view",
      "type": "function"
    },
    {
      "constant": false,
      "inputs": [
        {
          "name": "_newExecutor",
          "type": "address"
        }
      ],
      "name": "transferExecutorOwnership",
      "outputs": [],
      "payable": false,
      "stateMutability": "nonpayable",
      "type": "function"
    },
    {
      "constant": true,
      "inputs": [],
      "name": "version",
      "outputs": [
        {
          "name": "",
          "type": "uint8"
        }
      ],
      "payable": false,
      "stateMutability": "view",
      "type": "function"
    },
    {
      "constant": true,
      "inputs": [],
      "name": "paused",
      "outputs": [
        {
          "name": "",
          "type": "bool"
        }
      ],
      "payable": false,
      "stateMutability": "view",
      "type": "function"
    },
    {
      "constant": false,
      "inputs": [
        {
          "name": "_newOwner",
          "type": "address"
        }
      ],
      "name": "transferSuperOwnership",
      "outputs": [],
      "payable": false,
      "stateMutability": "nonpayable",
      "type": "function"
    },
    {
      "constant": true,
      "inputs": [],
      "name": "superOwner",
      "outputs": [
        {
          "name": "",
          "type": "address"
        }
      ],
      "payable": false,
      "stateMutability": "view",
      "type": "function"
    },
    {
      "constant": true,
      "inputs": [],
      "name": "owner",
      "outputs": [
        {
          "name": "",
          "type": "address"
        }
      ],
      "payable": false,
      "stateMutability": "view",
      "type": "function"
    },
    {
      "constant": true,
      "inputs": [],
      "name": "totalPools",
      "outputs": [
        {
          "name": "",
          "type": "uint256"
        }
      ],
      "payable": false,
      "stateMutability": "view",
      "type": "function"
    },
    {
      "constant": true,
      "inputs": [
        {
          "name": "",
          "type": "uint256"
        }
      ],
      "name": "pools",
      "outputs": [
        {
          "name": "contributionStartUtc",
          "type": "uint256"
        },
        {
          "name": "contributionEndUtc",
          "type": "uint256"
        },
        {
          "name": "destination",
          "type": "address"
        },
        {
          "name": "status",
          "type": "uint8"
        },
        {
          "name": "amountLimit",
          "type": "uint256"
        },
        {
          "name": "amountCollected",
          "type": "uint256"
        },
        {
          "name": "amountDistributing",
          "type": "uint256"
        },
        {
          "name": "paidout",
          "type": "uint256"
        },
        {
          "name": "prizeCalculator",
          "type": "address"
        }
      ],
      "payable": false,
      "stateMutability": "view",
      "type": "function"
    },
    {
      "constant": true,
      "inputs": [],
      "name": "executor",
      "outputs": [
        {
          "name": "",
          "type": "address"
        }
      ],
      "payable": false,
      "stateMutability": "view",
      "type": "function"
    },
    {
      "constant": true,
      "inputs": [],
      "name": "POOL_ID",
      "outputs": [
        {
          "name": "",
          "type": "uint256"
        }
      ],
      "payable": false,
      "stateMutability": "view",
      "type": "function"
    },
    {
      "constant": false,
      "inputs": [
        {
          "name": "_newOwner",
          "type": "address"
        }
      ],
      "name": "transferOwnership",
      "outputs": [],
      "payable": false,
      "stateMutability": "nonpayable",
      "type": "function"
    },
    {
      "constant": true,
      "inputs": [],
      "name": "token",
      "outputs": [
        {
          "name": "",
          "type": "address"
        }
      ],
      "payable": false,
      "stateMutability": "view",
      "type": "function"
    },
    {
      "payable": true,
      "stateMutability": "payable",
      "type": "fallback"
    },
    {
      "anonymous": false,
      "inputs": [
        {
          "indexed": false,
          "name": "_token",
          "type": "address"
        }
      ],
      "name": "Initialize",
      "type": "event"
    },
    {
      "anonymous": false,
      "inputs": [
        {
          "indexed": false,
          "name": "_id",
          "type": "uint256"
        }
      ],
      "name": "PoolAdded",
      "type": "event"
    },
    {
      "anonymous": false,
      "inputs": [
        {
          "indexed": false,
          "name": "_id",
          "type": "uint256"
        }
      ],
      "name": "PoolDestinationUpdated",
      "type": "event"
    },
    {
      "anonymous": false,
      "inputs": [
        {
          "indexed": false,
          "name": "_from",
          "type": "address"
        },
        {
          "indexed": false,
          "name": "_poolId",
          "type": "uint256"
        },
        {
          "indexed": false,
          "name": "_contributionId",
          "type": "uint256"
        }
      ],
      "name": "ContributionAdded",
      "type": "event"
    },
    {
      "anonymous": false,
      "inputs": [
        {
          "indexed": false,
          "name": "_poolId",
          "type": "uint256"
        },
        {
          "indexed": false,
          "name": "_oldStatus",
          "type": "uint8"
        },
        {
          "indexed": false,
          "name": "_newStatus",
          "type": "uint8"
        }
      ],
      "name": "PoolStatusChange",
      "type": "event"
    },
    {
      "anonymous": false,
      "inputs": [
        {
          "indexed": false,
          "name": "_poolId",
          "type": "uint256"
        },
        {
          "indexed": false,
          "name": "_contributionId",
          "type": "uint256"
        }
      ],
      "name": "Paidout",
      "type": "event"
    },
    {
      "anonymous": false,
      "inputs": [
        {
          "indexed": false,
          "name": "_amount",
          "type": "uint256"
        }
      ],
      "name": "Withdraw",
      "type": "event"
    },
    {
      "anonymous": false,
      "inputs": [
        {
          "indexed": true,
          "name": "_from",
          "type": "address"
        },
        {
          "indexed": true,
          "name": "_to",
          "type": "address"
        }
      ],
      "name": "OwnershipTransferred",
      "type": "event"
    },
    {
      "constant": false,
      "inputs": [
        {
          "name": "_token",
          "type": "address"
        }
      ],
      "name": "initialize",
      "outputs": [],
      "payable": false,
      "stateMutability": "nonpayable",
      "type": "function"
    },
    {
      "constant": false,
      "inputs": [
        {
          "name": "_destination",
          "type": "address"
        },
        {
          "name": "_contributionStartUtc",
          "type": "uint256"
        },
        {
          "name": "_contributionEndUtc",
          "type": "uint256"
        },
        {
          "name": "_amountLimit",
          "type": "uint256"
        },
        {
          "name": "_prizeCalculator",
          "type": "address"
        }
      ],
      "name": "addPool",
      "outputs": [
        {
          "name": "",
          "type": "uint256"
        }
      ],
      "payable": false,
      "stateMutability": "nonpayable",
      "type": "function"
    },
    {
      "constant": false,
      "inputs": [
        {
          "name": "_id",
          "type": "uint256"
        },
        {
          "name": "_destination",
          "type": "address"
        }
      ],
      "name": "updateDestination",
      "outputs": [],
      "payable": false,
      "stateMutability": "nonpayable",
      "type": "function"
    },
    {
      "constant": false,
      "inputs": [
        {
          "name": "_poolId",
          "type": "uint256"
        },
        {
          "name": "_status",
          "type": "uint8"
        }
      ],
      "name": "setPoolStatus",
      "outputs": [],
      "payable": false,
      "stateMutability": "nonpayable",
      "type": "function"
    },
    {
      "constant": false,
      "inputs": [
        {
          "name": "_poolId",
          "type": "uint256"
        },
        {
          "name": "_poolStatus",
          "type": "uint8"
        },
        {
          "name": "_amountDistributing",
          "type": "uint256"
        }
      ],
      "name": "setPoolAmountDistributing",
      "outputs": [],
      "payable": false,
      "stateMutability": "nonpayable",
      "type": "function"
    },
    {
      "constant": false,
      "inputs": [
        {
          "name": "_from",
          "type": "address"
        },
        {
          "name": "_amountOfTokens",
          "type": "uint256"
        },
        {
          "name": "_token",
          "type": "address"
        },
        {
          "name": "_data",
          "type": "bytes"
        }
      ],
      "name": "receiveApproval",
      "outputs": [],
      "payable": false,
      "stateMutability": "nonpayable",
      "type": "function"
    },
    {
      "constant": false,
      "inputs": [
        {
          "name": "_poolId",
          "type": "uint256"
        }
      ],
      "name": "transferToDestination",
      "outputs": [],
      "payable": false,
      "stateMutability": "nonpayable",
      "type": "function"
    },
    {
      "constant": false,
      "inputs": [
        {
          "name": "_contributionId",
          "type": "uint256"
        }
      ],
      "name": "payout",
      "outputs": [],
      "payable": false,
      "stateMutability": "nonpayable",
      "type": "function"
    },
    {
      "constant": false,
      "inputs": [
        {
          "name": "_contributionId",
          "type": "uint256"
        }
      ],
      "name": "refund",
      "outputs": [],
      "payable": false,
      "stateMutability": "nonpayable",
      "type": "function"
    },
    {
      "constant": true,
      "inputs": [
        {
          "name": "_contributionId",
          "type": "uint256"
        }
      ],
      "name": "getContribution",
      "outputs": [
        {
          "name": "",
          "type": "uint256"
        },
        {
          "name": "",
          "type": "uint256"
        },
        {
          "name": "",
          "type": "uint256"
        },
        {
          "name": "",
          "type": "uint256"
        },
        {
          "name": "",
          "type": "address"
        }
      ],
      "payable": false,
      "stateMutability": "view",
      "type": "function"
    },
    {
      "constant": true,
      "inputs": [
        {
          "name": "_poolId",
          "type": "uint256"
        }
      ],
      "name": "getPoolContributionsLength",
      "outputs": [
        {
          "name": "",
          "type": "uint256"
        }
      ],
      "payable": false,
      "stateMutability": "view",
      "type": "function"
    },
    {
      "constant": false,
      "inputs": [],
      "name": "withdrawETH",
      "outputs": [],
      "payable": false,
      "stateMutability": "nonpayable",
      "type": "function"
    },
    {
      "constant": false,
      "inputs": [
        {
          "name": "_amount",
          "type": "uint256"
        },
        {
          "name": "_token",
          "type": "address"
        }
      ],
      "name": "withdrawTokens",
      "outputs": [],
      "payable": false,
      "stateMutability": "nonpayable",
      "type": "function"
    },
    {
      "constant": false,
      "inputs": [
        {
          "name": "_paused",
          "type": "bool"
        }
      ],
      "name": "pause",
      "outputs": [],
      "payable": false,
      "stateMutability": "nonpayable",
      "type": "function"
    },
    {
      "constant": true,
      "inputs": [
        {
          "name": "b",
          "type": "bytes"
        }
      ],
      "name": "bytesToUint",
      "outputs": [
        {
          "name": "",
          "type": "uint256"
        }
      ],
      "payable": false,
      "stateMutability": "pure",
      "type": "function"
    }
  ],
  "bytecode": "0x60806040526001600260146101000a81548160ff02191690831515021790555033600260006101000a81548173ffffffffffffffffffffffffffffffffffffffff021916908373ffffffffffffffffffffffffffffffffffffffff160217905550336000806101000a81548173ffffffffffffffffffffffffffffffffffffffff021916908373ffffffffffffffffffffffffffffffffffffffff16021790555033600160006101000a81548173ffffffffffffffffffffffffffffffffffffffff021916908373ffffffffffffffffffffffffffffffffffffffff160217905550613ade806100f06000396000f30060806040526004361061016a576000357c0100000000000000000000000000000000000000000000000000000000900463ffffffff16806302329a291461017957806302d06d05146101a85780630dccaeea14610225578063131b81ad146102505780631624d7f214610293578063278ecde1146102d7578063296d2ea714610304578063398d92bb1461039957806348320464146103e657806354fd4d50146104275780635c975abb1461045857806362abb5601461048757806387dcd2b6146104ca5780638da5cb5b146105215780638f4ffcb1146105785780638f54d4b4146105fd5780639834ba931461062a578063ab3c7e5214610677578063ac4afa38146106a2578063b34c972e14610781578063c34c08e5146107bb578063c4d66de814610812578063cef4225414610855578063e086e5ec146108de578063e0d7d0e9146108f5578063e115234314610920578063f2fde38b1461094d578063fc0c546a14610990575b6000151561017757600080fd5b005b34801561018557600080fd5b506101a66004803603810190808035151590602001909291905050506109e7565b005b3480156101b457600080fd5b5061020f600480360381019080803590602001908201803590602001908080601f0160208091040260200160405190810160405280939291908181526020018383808284378201915050505050509192919290505050610b20565b6040518082815260200191505060405180910390f35b34801561023157600080fd5b5061023a610bd7565b6040518082815260200191505060405180910390f35b34801561025c57600080fd5b50610291600480360381019080803573ffffffffffffffffffffffffffffffffffffffff169060200190929190505050610bdd565b005b34801561029f57600080fd5b506102d560048036038101908080359060200190929190803560ff16906020019092919080359060200190929190505050610db9565b005b3480156102e357600080fd5b5061030260048036038101908080359060200190929190505050610eff565b005b34801561031057600080fd5b50610383600480360381019080803573ffffffffffffffffffffffffffffffffffffffff169060200190929190803590602001909291908035906020019092919080359060200190929190803573ffffffffffffffffffffffffffffffffffffffff169060200190929190505050611485565b6040518082815260200191505060405180910390f35b3480156103a557600080fd5b506103e460048036038101908080359060200190929190803573ffffffffffffffffffffffffffffffffffffffff1690602001909291905050506117c2565b005b3480156103f257600080fd5b5061041160048036038101908080359060200190929190505050611a20565b6040518082815260200191505060405180910390f35b34801561043357600080fd5b5061043c611a43565b604051808260ff1660ff16815260200191505060405180910390f35b34801561046457600080fd5b5061046d611a48565b604051808215151515815260200191505060405180910390f35b34801561049357600080fd5b506104c8600480360381019080803573ffffffffffffffffffffffffffffffffffffffff169060200190929190505050611a5b565b005b3480156104d657600080fd5b506104df611be0565b604051808273ffffffffffffffffffffffffffffffffffffffff1673ffffffffffffffffffffffffffffffffffffffff16815260200191505060405180910390f35b34801561052d57600080fd5b50610536611c06565b604051808273ffffffffffffffffffffffffffffffffffffffff1673ffffffffffffffffffffffffffffffffffffffff16815260200191505060405180910390f35b34801561058457600080fd5b506105fb600480360381019080803573ffffffffffffffffffffffffffffffffffffffff16906020019092919080359060200190929190803573ffffffffffffffffffffffffffffffffffffffff169060200190929190803590602001908201803590602001919091929391929390505050611c2b565b005b34801561060957600080fd5b506106286004803603810190808035906020019092919050505061252a565b005b34801561063657600080fd5b5061067560048036038101908080359060200190929190803573ffffffffffffffffffffffffffffffffffffffff1690602001909291905050506127a8565b005b34801561068357600080fd5b5061068c6129df565b6040518082815260200191505060405180910390f35b3480156106ae57600080fd5b506106cd600480360381019080803590602001909291905050506129e5565b604051808a81526020018981526020018873ffffffffffffffffffffffffffffffffffffffff1673ffffffffffffffffffffffffffffffffffffffff16815260200187600581111561071b57fe5b60ff1681526020018681526020018581526020018481526020018381526020018273ffffffffffffffffffffffffffffffffffffffff1673ffffffffffffffffffffffffffffffffffffffff168152602001995050505050505050505060405180910390f35b34801561078d57600080fd5b506107b960048036038101908080359060200190929190803560ff169060200190929190505050612a80565b005b3480156107c757600080fd5b506107d0612d0f565b604051808273ffffffffffffffffffffffffffffffffffffffff1673ffffffffffffffffffffffffffffffffffffffff16815260200191505060405180910390f35b34801561081e57600080fd5b50610853600480360381019080803573ffffffffffffffffffffffffffffffffffffffff169060200190929190505050612d35565b005b34801561086157600080fd5b5061088060048036038101908080359060200190929190505050612f13565b604051808681526020018581526020018481526020018381526020018273ffffffffffffffffffffffffffffffffffffffff1673ffffffffffffffffffffffffffffffffffffffff1681526020019550505050505060405180910390f35b3480156108ea57600080fd5b506108f3612fc1565b005b34801561090157600080fd5b5061090a61319b565b6040518082815260200191505060405180910390f35b34801561092c57600080fd5b5061094b600480360381019080803590602001909291905050506131a1565b005b34801561095957600080fd5b5061098e600480360381019080803573ffffffffffffffffffffffffffffffffffffffff169060200190929190505050613852565b005b34801561099c57600080fd5b506109a5613a2c565b604051808273ffffffffffffffffffffffffffffffffffffffff1673ffffffffffffffffffffffffffffffffffffffff16815260200191505060405180910390f35b6000809054906101000a900473ffffffffffffffffffffffffffffffffffffffff1673ffffffffffffffffffffffffffffffffffffffff163373ffffffffffffffffffffffffffffffffffffffff161480610a8f5750600260009054906101000a900473ffffffffffffffffffffffffffffffffffffffff1673ffffffffffffffffffffffffffffffffffffffff163373ffffffffffffffffffffffffffffffffffffffff16145b1515610b03576040517f08c379a00000000000000000000000000000000000000000000000000000000081526004018080602001828103825260118152602001807f55736572206973206e6f74206f776e657200000000000000000000000000000081525060200191505060405180910390fd5b80600260146101000a81548160ff02191690831515021790555050565b60008060008090505b8351811015610bcd576001810184510360080260020a8482815181101515610b4d57fe5b9060200101517f010000000000000000000000000000000000000000000000000000000000000090047f0100000000000000000000000000000000000000000000000000000000000000027f0100000000000000000000000000000000000000000000000000000000000000900402820191508080600101915050610b29565b8192505050919050565b60065481565b6000809054906101000a900473ffffffffffffffffffffffffffffffffffffffff1673ffffffffffffffffffffffffffffffffffffffff163373ffffffffffffffffffffffffffffffffffffffff161480610c855750600260009054906101000a900473ffffffffffffffffffffffffffffffffffffffff1673ffffffffffffffffffffffffffffffffffffffff163373ffffffffffffffffffffffffffffffffffffffff16145b1515610cf9576040517f08c379a00000000000000000000000000000000000000000000000000000000081526004018080602001828103825260118152602001807f55736572206973206e6f74206f776e657200000000000000000000000000000081525060200191505060405180910390fd5b8073ffffffffffffffffffffffffffffffffffffffff16600160009054906101000a900473ffffffffffffffffffffffffffffffffffffffff1673ffffffffffffffffffffffffffffffffffffffff167f8be0079c531659141344cd1fd0a4f28419497f9722a3daafe3b4186f6b6457e060405160405180910390a380600160006101000a81548173ffffffffffffffffffffffffffffffffffffffff021916908373ffffffffffffffffffffffffffffffffffffffff16021790555050565b6000809054906101000a900473ffffffffffffffffffffffffffffffffffffffff1673ffffffffffffffffffffffffffffffffffffffff163373ffffffffffffffffffffffffffffffffffffffff161480610e615750600260009054906101000a900473ffffffffffffffffffffffffffffffffffffffff1673ffffffffffffffffffffffffffffffffffffffff163373ffffffffffffffffffffffffffffffffffffffff16145b1515610ed5576040517f08c379a00000000000000000000000000000000000000000000000000000000081526004018080602001828103825260118152602001807f55736572206973206e6f74206f776e657200000000000000000000000000000081525060200191505060405180910390fd5b610edf8383612a80565b806007600085815260200190815260200160002060050181905550505050565b60008060001515600260149054906101000a900460ff161515141515610f8d576040517f08c379a00000000000000000000000000000000000000000000000000000000081526004018080602001828103825260128152602001807f436f6e747261637420697320706175736564000000000000000000000000000081525060200191505060405180910390fd5b60086000848152602001908152602001600020915081600101549050600580811115610fb557fe5b6007600083815260200190815260200160002060020160149054906101000a900460ff166005811115610fe457fe5b141515611059576040517f08c379a00000000000000000000000000000000000000000000000000000000081526004018080602001828103825260178152602001807f506f6f6c2073686f756c642062652063616e63656c656400000000000000000081525060200191505060405180910390fd5b600760008281526020019081526020016000206006015460076000838152602001908152602001600020600501541115156110fc576040517f08c379a00000000000000000000000000000000000000000000000000000000081526004018080602001828103825260188152602001807f506f6f6c2073686f756c64206265206e6f7420656d707479000000000000000081525060200191505060405180910390fd5b60008260030154141515611178576040517f08c379a000000000000000000000000000000000000000000000000000000000815260040180806020018281038252601c8152602001807f436f6e747269627574696f6e20616c726561647920706169646f75740000000081525060200191505060405180910390fd5b600082600201541115156111f4576040517f08c379a00000000000000000000000000000000000000000000000000000000081526004018080602001828103825260168152602001807f436f6e747269627574696f6e206e6f742076616c69640000000000000000000081525060200191505060405180910390fd5b600073ffffffffffffffffffffffffffffffffffffffff168260040160009054906101000a900473ffffffffffffffffffffffffffffffffffffffff1673ffffffffffffffffffffffffffffffffffffffff16141515156112bd576040517f08c379a000000000000000000000000000000000000000000000000000000000815260040180806020018281038252600f8152602001807f4f776e6572206e6f742076616c6964000000000000000000000000000000000081525060200191505060405180910390fd5b816002015482600301819055506112f782600201546007600084815260200190815260200160002060060154613a5290919063ffffffff16565b6007600083815260200190815260200160002060060181905550600360009054906101000a900473ffffffffffffffffffffffffffffffffffffffff1673ffffffffffffffffffffffffffffffffffffffff1663a9059cbb8360040160009054906101000a900473ffffffffffffffffffffffffffffffffffffffff1684600201546040518363ffffffff167c0100000000000000000000000000000000000000000000000000000000028152600401808373ffffffffffffffffffffffffffffffffffffffff1673ffffffffffffffffffffffffffffffffffffffff16815260200182815260200192505050602060405180830381600087803b1580156113fe57600080fd5b505af1158015611412573d6000803e3d6000fd5b505050506040513d602081101561142857600080fd5b8101908080519060200190929190505050151561144157fe5b7fb5b846ede922825a1f41a3896f917fb3b1e6afa5e698a735e80949d9b5ee930e8184604051808381526020018281526020019250505060405180910390a1505050565b6000806000809054906101000a900473ffffffffffffffffffffffffffffffffffffffff1673ffffffffffffffffffffffffffffffffffffffff163373ffffffffffffffffffffffffffffffffffffffff1614806115305750600260009054906101000a900473ffffffffffffffffffffffffffffffffffffffff1673ffffffffffffffffffffffffffffffffffffffff163373ffffffffffffffffffffffffffffffffffffffff16145b15156115a4576040517f08c379a00000000000000000000000000000000000000000000000000000000081526004018080602001828103825260118152602001807f55736572206973206e6f74206f776e657200000000000000000000000000000081525060200191505060405180910390fd5b60001515600260149054906101000a900460ff16151514151561162f576040517f08c379a00000000000000000000000000000000000000000000000000000000081526004018080602001828103825260128152602001807f436f6e747261637420697320706175736564000000000000000000000000000081525060200191505060405180910390fd5b611637613a6e565b9050600460008154809291906001019190505550856007600083815260200190815260200160002060000181905550846007600083815260200190815260200160002060010181905550866007600083815260200190815260200160002060020160006101000a81548173ffffffffffffffffffffffffffffffffffffffff021916908373ffffffffffffffffffffffffffffffffffffffff16021790555060016007600083815260200190815260200160002060020160146101000a81548160ff0219169083600581111561170957fe5b0217905550836007600083815260200190815260200160002060030181905550826007600083815260200190815260200160002060070160006101000a81548173ffffffffffffffffffffffffffffffffffffffff021916908373ffffffffffffffffffffffffffffffffffffffff1602179055507f522b283dfad3650433b41164a9379b13dc60bbf24676affdc6a33c84dd3ac15d816040518082815260200191505060405180910390a18091505095945050505050565b6000809054906101000a900473ffffffffffffffffffffffffffffffffffffffff1673ffffffffffffffffffffffffffffffffffffffff163373ffffffffffffffffffffffffffffffffffffffff16148061186a5750600260009054906101000a900473ffffffffffffffffffffffffffffffffffffffff1673ffffffffffffffffffffffffffffffffffffffff163373ffffffffffffffffffffffffffffffffffffffff16145b15156118de576040517f08c379a00000000000000000000000000000000000000000000000000000000081526004018080602001828103825260118152602001807f55736572206973206e6f74206f776e657200000000000000000000000000000081525060200191505060405180910390fd5b8073ffffffffffffffffffffffffffffffffffffffff1663a9059cbb6000809054906101000a900473ffffffffffffffffffffffffffffffffffffffff16846040518363ffffffff167c0100000000000000000000000000000000000000000000000000000000028152600401808373ffffffffffffffffffffffffffffffffffffffff1673ffffffffffffffffffffffffffffffffffffffff16815260200182815260200192505050602060405180830381600087803b1580156119a257600080fd5b505af11580156119b6573d6000803e3d6000fd5b505050506040513d60208110156119cc57600080fd5b810190808051906020019092919050505015156119e557fe5b7f5b6b431d4476a211bb7d41c20d1aab9ae2321deee0d20be3d9fc9b1093fa6e3d826040518082815260200191505060405180910390a15050565b600060076000838152602001908152602001600020600801805490509050919050565b600181565b600260149054906101000a900460ff1681565b600260009054906101000a900473ffffffffffffffffffffffffffffffffffffffff1673ffffffffffffffffffffffffffffffffffffffff163373ffffffffffffffffffffffffffffffffffffffff16141515611b20576040517f08c379a00000000000000000000000000000000000000000000000000000000081526004018080602001828103825260118152602001807f55736572206973206e6f74206f776e657200000000000000000000000000000081525060200191505060405180910390fd5b8073ffffffffffffffffffffffffffffffffffffffff16600260009054906101000a900473ffffffffffffffffffffffffffffffffffffffff1673ffffffffffffffffffffffffffffffffffffffff167f8be0079c531659141344cd1fd0a4f28419497f9722a3daafe3b4186f6b6457e060405160405180910390a380600260006101000a81548173ffffffffffffffffffffffffffffffffffffffff021916908373ffffffffffffffffffffffffffffffffffffffff16021790555050565b600260009054906101000a900473ffffffffffffffffffffffffffffffffffffffff1681565b6000809054906101000a900473ffffffffffffffffffffffffffffffffffffffff1681565b600080600360009054906101000a900473ffffffffffffffffffffffffffffffffffffffff1673ffffffffffffffffffffffffffffffffffffffff163373ffffffffffffffffffffffffffffffffffffffff16141515611c8a57600080fd5b60001515600260149054906101000a900460ff161515141515611d15576040517f08c379a00000000000000000000000000000000000000000000000000000000081526004018080602001828103825260128152602001807f436f6e747261637420697320706175736564000000000000000000000000000081525060200191505060405180910390fd5b600086111515611d8d576040517f08c379a00000000000000000000000000000000000000000000000000000000081526004018080602001828103825260148152602001807f616d6f756e742073686f756c64206265203e203000000000000000000000000081525060200191505060405180910390fd5b600073ffffffffffffffffffffffffffffffffffffffff168773ffffffffffffffffffffffffffffffffffffffff1614151515611e32576040517f08c379a000000000000000000000000000000000000000000000000000000000815260040180806020018281038252600e8152602001807f6e6f742076616c69642066726f6d00000000000000000000000000000000000081525060200191505060405180910390fd5b604084849050141515611ead576040517f08c379a00000000000000000000000000000000000000000000000000000000081526004018080602001828103825260168152602001807f6e6f742076616c6964205f64617461206c656e6774680000000000000000000081525060200191505060405180910390fd5b611ee884848080601f016020809104026020016040519081016040528093929190818152602001838380828437820191505050505050610b20565b915060016005811115611ef757fe5b6007600084815260200190815260200160002060020160149054906101000a900460ff166005811115611f2657fe5b141515611f9b576040517f08c379a00000000000000000000000000000000000000000000000000000000081526004018080602001828103825260178152602001807f5374617475732073686f756c642062652061637469766500000000000000000081525060200191505060405180910390fd5b426007600084815260200190815260200160002060000154101515612028576040517f08c379a000000000000000000000000000000000000000000000000000000000815260040180806020018281038252601b8152602001807f436f6e747269627574696f6e206973206e6f742073746172746564000000000081525060200191505060405180910390fd5b4260076000848152602001908152602001600020600101541115156120b5576040517f08c379a00000000000000000000000000000000000000000000000000000000081526004018080602001828103825260158152602001807f436f6e747269627574696f6e20697320656e646564000000000000000000000081525060200191505060405180910390fd5b60006007600084815260200190815260200160002060030154148061211857506120fe866007600085815260200190815260200160002060040154613a5290919063ffffffff16565b600760008481526020019081526020016000206003015410155b151561218c576040517f08c379a000000000000000000000000000000000000000000000000000000000815260040180806020018281038252601a8152602001807f436f6e747269627574696f6e206c696d6974207265616368656400000000000081525060200191505060405180910390fd5b8473ffffffffffffffffffffffffffffffffffffffff166323b872dd8830896040518463ffffffff167c0100000000000000000000000000000000000000000000000000000000028152600401808473ffffffffffffffffffffffffffffffffffffffff1673ffffffffffffffffffffffffffffffffffffffff1681526020018373ffffffffffffffffffffffffffffffffffffffff1673ffffffffffffffffffffffffffffffffffffffff1681526020018281526020019350505050602060405180830381600087803b15801561226357600080fd5b505af1158015612277573d6000803e3d6000fd5b505050506040513d602081101561228d57600080fd5b81019080805190602001909291905050501515612312576040517f08c379a00000000000000000000000000000000000000000000000000000000081526004018080602001828103825260178152602001807f546f6b656e73207472616e73666572206661696c65642e00000000000000000081525060200191505060405180910390fd5b61233b866007600085815260200190815260200160002060040154613a5290919063ffffffff16565b600760008481526020019081526020016000206004018190555061235d613a90565b905060076000838152602001908152602001600020600801819080600181540180825580915050906001820390600052602060002001600090919290919091505550806008600083815260200190815260200160002060000181905550816008600083815260200190815260200160002060010181905550856008600083815260200190815260200160002060020181905550866008600083815260200190815260200160002060040160006101000a81548173ffffffffffffffffffffffffffffffffffffffff021916908373ffffffffffffffffffffffffffffffffffffffff160217905550600960008873ffffffffffffffffffffffffffffffffffffffff1673ffffffffffffffffffffffffffffffffffffffff1681526020019081526020016000208190806001815401808255809150509060018203906000526020600020016000909192909190915055507fd51536b687caf52ac0a4f7008c1ffecc1b0d746f5ef64803892f3cef5f45d460878383604051808473ffffffffffffffffffffffffffffffffffffffff1673ffffffffffffffffffffffffffffffffffffffff168152602001838152602001828152602001935050505060405180910390a150505050505050565b6000809054906101000a900473ffffffffffffffffffffffffffffffffffffffff1673ffffffffffffffffffffffffffffffffffffffff163373ffffffffffffffffffffffffffffffffffffffff1614806125d25750600260009054906101000a900473ffffffffffffffffffffffffffffffffffffffff1673ffffffffffffffffffffffffffffffffffffffff163373ffffffffffffffffffffffffffffffffffffffff16145b1515612646576040517f08c379a00000000000000000000000000000000000000000000000000000000081526004018080602001828103825260118152602001807f55736572206973206e6f74206f776e657200000000000000000000000000000081525060200191505060405180910390fd5b600360009054906101000a900473ffffffffffffffffffffffffffffffffffffffff1673ffffffffffffffffffffffffffffffffffffffff1663a9059cbb6007600084815260200190815260200160002060020160009054906101000a900473ffffffffffffffffffffffffffffffffffffffff1660076000858152602001908152602001600020600401546040518363ffffffff167c0100000000000000000000000000000000000000000000000000000000028152600401808373ffffffffffffffffffffffffffffffffffffffff1673ffffffffffffffffffffffffffffffffffffffff16815260200182815260200192505050602060405180830381600087803b15801561275757600080fd5b505af115801561276b573d6000803e3d6000fd5b505050506040513d602081101561278157600080fd5b8101908080519060200190929190505050151561279a57fe5b6127a5816003612a80565b50565b6000809054906101000a900473ffffffffffffffffffffffffffffffffffffffff1673ffffffffffffffffffffffffffffffffffffffff163373ffffffffffffffffffffffffffffffffffffffff1614806128505750600260009054906101000a900473ffffffffffffffffffffffffffffffffffffffff1673ffffffffffffffffffffffffffffffffffffffff163373ffffffffffffffffffffffffffffffffffffffff16145b15156128c4576040517f08c379a00000000000000000000000000000000000000000000000000000000081526004018080602001828103825260118152602001807f55736572206973206e6f74206f776e657200000000000000000000000000000081525060200191505060405180910390fd5b60001515600260149054906101000a900460ff16151514151561294f576040517f08c379a00000000000000000000000000000000000000000000000000000000081526004018080602001828103825260128152602001807f436f6e747261637420697320706175736564000000000000000000000000000081525060200191505060405180910390fd5b806007600084815260200190815260200160002060020160006101000a81548173ffffffffffffffffffffffffffffffffffffffff021916908373ffffffffffffffffffffffffffffffffffffffff1602179055507ff0569db7daa672c1189b8cb7e69a28d0d8f13b932e643f3b4e4d808cc698bf97826040518082815260200191505060405180910390a15050565b60045481565b60076020528060005260406000206000915090508060000154908060010154908060020160009054906101000a900473ffffffffffffffffffffffffffffffffffffffff16908060020160149054906101000a900460ff16908060030154908060040154908060050154908060060154908060070160009054906101000a900473ffffffffffffffffffffffffffffffffffffffff16905089565b6000809054906101000a900473ffffffffffffffffffffffffffffffffffffffff1673ffffffffffffffffffffffffffffffffffffffff163373ffffffffffffffffffffffffffffffffffffffff161480612b285750600260009054906101000a900473ffffffffffffffffffffffffffffffffffffffff1673ffffffffffffffffffffffffffffffffffffffff163373ffffffffffffffffffffffffffffffffffffffff16145b1515612b9c576040517f08c379a00000000000000000000000000000000000000000000000000000000081526004018080602001828103825260118152602001807f55736572206973206e6f74206f776e657200000000000000000000000000000081525060200191505060405180910390fd5b60006005811115612ba957fe5b6007600084815260200190815260200160002060020160149054906101000a900460ff166005811115612bd857fe5b14151515612c4e576040517f08c379a000000000000000000000000000000000000000000000000000000000815260040180806020018281038252601a8152602001807f706f6f6c2073686f756c6420626520696e697469616c697a656400000000000081525060200191505060405180910390fd5b7f023bf4018890909e279107510de8255d7a3e20d28ba9037a528034453066718f826007600085815260200190815260200160002060020160149054906101000a900460ff168360405180848152602001836005811115612cab57fe5b60ff168152602001826005811115612cbf57fe5b60ff168152602001935050505060405180910390a1806007600084815260200190815260200160002060020160146101000a81548160ff02191690836005811115612d0657fe5b02179055505050565b600160009054906101000a900473ffffffffffffffffffffffffffffffffffffffff1681565b6000809054906101000a900473ffffffffffffffffffffffffffffffffffffffff1673ffffffffffffffffffffffffffffffffffffffff163373ffffffffffffffffffffffffffffffffffffffff161480612ddd5750600260009054906101000a900473ffffffffffffffffffffffffffffffffffffffff1673ffffffffffffffffffffffffffffffffffffffff163373ffffffffffffffffffffffffffffffffffffffff16145b1515612e51576040517f08c379a00000000000000000000000000000000000000000000000000000000081526004018080602001828103825260118152602001807f55736572206973206e6f74206f776e657200000000000000000000000000000081525060200191505060405180910390fd5b80600360006101000a81548173ffffffffffffffffffffffffffffffffffffffff021916908373ffffffffffffffffffffffffffffffffffffffff1602179055506000600260146101000a81548160ff0219169083151502179055507f36b1453565f45af7b509b59d5e2eac8f1948ea9e3e193db6663b4101afb6382c81604051808273ffffffffffffffffffffffffffffffffffffffff1673ffffffffffffffffffffffffffffffffffffffff16815260200191505060405180910390a150565b6000806000806000600860008781526020019081526020016000206000015460086000888152602001908152602001600020600101546008600089815260200190815260200160002060020154600860008a815260200190815260200160002060030154600860008b815260200190815260200160002060040160009054906101000a900473ffffffffffffffffffffffffffffffffffffffff169450945094509450945091939590929450565b60008060009054906101000a900473ffffffffffffffffffffffffffffffffffffffff1673ffffffffffffffffffffffffffffffffffffffff163373ffffffffffffffffffffffffffffffffffffffff16148061306b5750600260009054906101000a900473ffffffffffffffffffffffffffffffffffffffff1673ffffffffffffffffffffffffffffffffffffffff163373ffffffffffffffffffffffffffffffffffffffff16145b15156130df576040517f08c379a00000000000000000000000000000000000000000000000000000000081526004018080602001828103825260118152602001807f55736572206973206e6f74206f776e657200000000000000000000000000000081525060200191505060405180910390fd5b3073ffffffffffffffffffffffffffffffffffffffff163190506000809054906101000a900473ffffffffffffffffffffffffffffffffffffffff1673ffffffffffffffffffffffffffffffffffffffff166108fc829081150290604051600060405180830381858888f19350505050158015613160573d6000803e3d6000fd5b507f5b6b431d4476a211bb7d41c20d1aab9ae2321deee0d20be3d9fc9b1093fa6e3d816040518082815260200191505060405180910390a150565b60055481565b60008060008060001515600260149054906101000a900460ff161515141515613232576040517f08c379a00000000000000000000000000000000000000000000000000000000081526004018080602001828103825260128152602001807f436f6e747261637420697320706175736564000000000000000000000000000081525060200191505060405180910390fd5b600860008681526020019081526020016000209350836001015492506002600581111561325b57fe5b6007600085815260200190815260200160002060020160149054906101000a900460ff16600581111561328a57fe5b1415156132ff576040517f08c379a000000000000000000000000000000000000000000000000000000000815260040180806020018281038252601b8152602001807f506f6f6c2073686f756c6420626520446973747269627574696e67000000000081525060200191505060405180910390fd5b600760008481526020019081526020016000206006015460076000858152602001908152602001600020600501541115156133a2576040517f08c379a00000000000000000000000000000000000000000000000000000000081526004018080602001828103825260188152602001807f506f6f6c2073686f756c64206265206e6f7420656d707479000000000000000081525060200191505060405180910390fd5b6000846002015411151561341e576040517f08c379a00000000000000000000000000000000000000000000000000000000081526004018080602001828103825260168152602001807f436f6e747269627574696f6e206e6f742076616c69640000000000000000000081525060200191505060405180910390fd5b6000846003015414151561349a576040517f08c379a000000000000000000000000000000000000000000000000000000000815260040180806020018281038252601c8152602001807f436f6e747269627574696f6e20616c726561647920706169646f75740000000081525060200191505060405180910390fd5b600073ffffffffffffffffffffffffffffffffffffffff168460040160009054906101000a900473ffffffffffffffffffffffffffffffffffffffff1673ffffffffffffffffffffffffffffffffffffffff1614151515613563576040517f08c379a000000000000000000000000000000000000000000000000000000000815260040180806020018281038252600f8152602001807f4f776e6572206e6f742076616c6964000000000000000000000000000000000081525060200191505060405180910390fd5b6007600084815260200190815260200160002060070160009054906101000a900473ffffffffffffffffffffffffffffffffffffffff1691508173ffffffffffffffffffffffffffffffffffffffff1663e2bca77e6007600086815260200190815260200160002060050154600760008781526020019081526020016000206004015487600201546040518463ffffffff167c0100000000000000000000000000000000000000000000000000000000028152600401808481526020018381526020018281526020019350505050602060405180830381600087803b15801561364b57600080fd5b505af115801561365f573d6000803e3d6000fd5b505050506040513d602081101561367557600080fd5b8101908080519060200190929190505050905060008111151561369457fe5b8084600301819055506136c6816007600086815260200190815260200160002060060154613a5290919063ffffffff16565b6007600085815260200190815260200160002060060181905550600360009054906101000a900473ffffffffffffffffffffffffffffffffffffffff1673ffffffffffffffffffffffffffffffffffffffff1663a9059cbb8560040160009054906101000a900473ffffffffffffffffffffffffffffffffffffffff16836040518363ffffffff167c0100000000000000000000000000000000000000000000000000000000028152600401808373ffffffffffffffffffffffffffffffffffffffff1673ffffffffffffffffffffffffffffffffffffffff16815260200182815260200192505050602060405180830381600087803b1580156137c957600080fd5b505af11580156137dd573d6000803e3d6000fd5b505050506040513d60208110156137f357600080fd5b8101908080519060200190929190505050151561380c57fe5b7fb5b846ede922825a1f41a3896f917fb3b1e6afa5e698a735e80949d9b5ee930e8386604051808381526020018281526020019250505060405180910390a15050505050565b6000809054906101000a900473ffffffffffffffffffffffffffffffffffffffff1673ffffffffffffffffffffffffffffffffffffffff163373ffffffffffffffffffffffffffffffffffffffff1614806138fa5750600260009054906101000a900473ffffffffffffffffffffffffffffffffffffffff1673ffffffffffffffffffffffffffffffffffffffff163373ffffffffffffffffffffffffffffffffffffffff16145b151561396e576040517f08c379a00000000000000000000000000000000000000000000000000000000081526004018080602001828103825260118152602001807f55736572206973206e6f74206f776e657200000000000000000000000000000081525060200191505060405180910390fd5b8073ffffffffffffffffffffffffffffffffffffffff166000809054906101000a900473ffffffffffffffffffffffffffffffffffffffff1673ffffffffffffffffffffffffffffffffffffffff167f8be0079c531659141344cd1fd0a4f28419497f9722a3daafe3b4186f6b6457e060405160405180910390a3806000806101000a81548173ffffffffffffffffffffffffffffffffffffffff021916908373ffffffffffffffffffffffffffffffffffffffff16021790555050565b600360009054906101000a900473ffffffffffffffffffffffffffffffffffffffff1681565b60008183019050828110151515613a6857600080fd5b92915050565b6000613a866001600554613a5290919063ffffffff16565b6005819055905090565b6000613aa86001600654613a5290919063ffffffff16565b60068190559050905600a165627a7a72305820af7d24396da40b12c9870dd8250153c23733fb263ac566c7d192e2c1d238e0be0029",
  "source": "pragma solidity ^0.4.23;\n\nimport \"./../utils/OwnedWithExecutor.sol\";\nimport \"./../utils/SafeMath.sol\";\nimport \"./../interfaces/IERC20.sol\";\nimport \"./../interfaces/IPrizeCalculator.sol\";\n\ncontract Pools is Owned {\n    using SafeMath for uint;  \n\n    event Initialize(address _token);\n    event PoolAdded(uint _id);\n    event PoolDestinationUpdated(uint _id);\n    event ContributionAdded(address _from, uint _poolId, uint _contributionId);\n    event PoolStatusChange(uint _poolId, PoolStatus _oldStatus, PoolStatus _newStatus);\n    event Paidout(uint _poolId, uint _contributionId);\n    event Withdraw(uint _amount);\n    \n    struct Pool {  \n        uint contributionStartUtc;\n        uint contributionEndUtc;\n        address destination;\n        PoolStatus status;\n        uint amountLimit;\n        uint amountCollected;\n        uint amountDistributing;\n        uint paidout;\n        address prizeCalculator;\n        uint[] contributions;\n    }\n\n    struct Contribution { \n        uint id; \n        uint poolId;\n        uint amount;\n        uint paidout;\n        address owner;\n    }\n    \n    enum PoolStatus {\n        NotSet,       // 0\n        Active,       // 1\n        Distributing, // 2\n        Funding,       // 3\n        Paused,       // 4\n        Canceled      // 5 \n    }  \n\n    uint8 public constant version = 1;\n    bool public paused = true;\n    address public token;\n    uint public totalPools;\n    uint public POOL_ID;\n    uint public CONTRIBUTION_ID;\n    \n    mapping(uint => Pool) public pools;\n    mapping(uint => Contribution) contributions;\n    mapping(address => uint[]) mycontributions;\n\n    modifier contractNotPaused() {\n        require(paused == false, \"Contract is paused\");\n        _;\n    }\n\n    modifier senderIsToken() {\n        require(msg.sender == address(token));\n        _;\n    }\n\n    function initialize(address _token) external onlyOwnerOrSuperOwner {\n        token = _token;\n        paused = false;\n        emit Initialize(_token);\n    }\n\n    \n// TODO: create update function\n    function addPool(\n            address _destination, \n            uint _contributionStartUtc, \n            uint _contributionEndUtc, \n            uint _amountLimit, \n            address _prizeCalculator) \n        external \n        onlyOwnerOrSuperOwner \n        contractNotPaused \n        returns (uint){\n        \n        uint id = getPoolId();\n\n        totalPools++;\n        pools[id].contributionStartUtc = _contributionStartUtc;\n        pools[id].contributionEndUtc = _contributionEndUtc;\n        pools[id].destination = _destination;\n        pools[id].status = PoolStatus.Active;\n        pools[id].amountLimit = _amountLimit;\n        pools[id].prizeCalculator = _prizeCalculator;\n        \n        emit PoolAdded(id);\n        return id;\n    }\n\n    function updateDestination(uint _id, \n            address _destination) \n        external \n        onlyOwnerOrSuperOwner \n        contractNotPaused {\n\n        pools[_id].destination = _destination;\n\n        emit PoolDestinationUpdated(_id);\n    }\n    \n    function setPoolStatus(uint _poolId, PoolStatus _status) public onlyOwnerOrSuperOwner {\n        require(pools[_poolId].status != PoolStatus.NotSet, \"pool should be initialized\");\n        emit PoolStatusChange(_poolId,pools[_poolId].status, _status);\n        pools[_poolId].status = _status;\n    }\n    \n    // This method will be called for returning money when canceled or set everyone to take rewards by formula\n    function setPoolAmountDistributing(uint _poolId, PoolStatus _poolStatus, uint _amountDistributing) external onlyOwnerOrSuperOwner {\n        setPoolStatus(_poolId, _poolStatus);\n        pools[_poolId].amountDistributing = _amountDistributing;\n    }\n\n    /// Called by token contract after Approval: this.TokenInstance.methods.approveAndCall()\n    // _data = poolId(32),contributionId(32)\n    // TODO Data only poolId as UINT\n    // TODO return 0 ?\n    function receiveApproval(address _from, uint _amountOfTokens, address _token, bytes _data) \n            external \n            senderIsToken\n            contractNotPaused {    \n        require(_amountOfTokens > 0, \"amount should be > 0\");\n        require(_from != address(0), \"not valid from\");\n        require(_data.length == 64, \"not valid _data length\");\n      \n        uint poolId = bytesToUint(_data);\n        \n        // Validate pool and Contribution\n        require(pools[poolId].status == PoolStatus.Active, \"Status should be active\");\n        require(pools[poolId].contributionStartUtc < now, \"Contribution is not started\");    \n        require(pools[poolId].contributionEndUtc > now, \"Contribution is ended\"); \n        require(pools[poolId].amountLimit == 0 ||\n                pools[poolId].amountLimit >= pools[poolId].amountCollected.add(_amountOfTokens), \"Contribution limit reached\"); \n        \n        // Transfer tokens from sender to this contract\n        require(IERC20(_token).transferFrom(_from, address(this), _amountOfTokens), \"Tokens transfer failed.\");\n\n        pools[poolId].amountCollected = pools[poolId].amountCollected.add(_amountOfTokens);\n        \n        uint contributionId = getContributionId();\n        pools[poolId].contributions.push(contributionId);\n\n        contributions[contributionId].id = contributionId;\n        contributions[contributionId].poolId = poolId;\n        contributions[contributionId].amount = _amountOfTokens;\n        contributions[contributionId].owner = _from;\n\n        mycontributions[_from].push(contributionId);\n\n        emit ContributionAdded(_from, poolId, contributionId);\n    }\n    \n    function transferToDestination(uint _poolId) external onlyOwnerOrSuperOwner {\n        assert(IERC20(token).transfer(pools[_poolId].destination, pools[_poolId].amountCollected));\n        setPoolStatus(_poolId,PoolStatus.Funding);\n    }\n    \n    // TODO: removed PoolId from input \n    function payout(uint _contributionId) public contractNotPaused {\n        Contribution storage con = contributions[_contributionId];\n        uint poolId = con.poolId;\n\n        require(pools[poolId].status == PoolStatus.Distributing, \"Pool should be Distributing\");\n        require(pools[poolId].amountDistributing > pools[poolId].paidout, \"Pool should be not empty\");\n        require(con.amount > 0, \"Contribution not valid\");\n        require(con.paidout == 0, \"Contribution already paidout\");\n        require(con.owner != address(0), \"Owner not valid\"); \n        \n        \n        IPrizeCalculator calculator = IPrizeCalculator(pools[poolId].prizeCalculator);\n    \n        uint winAmount = calculator.calculatePrizeAmount(\n            pools[poolId].amountDistributing,\n            pools[poolId].amountCollected,  \n            con.amount\n        );\n      \n        assert(winAmount > 0);\n        con.paidout = winAmount;\n        pools[poolId].paidout = pools[poolId].paidout.add(winAmount);\n        assert(IERC20(token).transfer(con.owner, winAmount));\n        emit Paidout(poolId, _contributionId);\n    }\n\n    // TODO: removed PoolId from input \n    function refund(uint _contributionId) public contractNotPaused {\n        Contribution storage con = contributions[_contributionId];\n        uint poolId = con.poolId;\n\n        require(pools[poolId].status == PoolStatus.Canceled, \"Pool should be canceled\");\n        require(pools[poolId].amountDistributing > pools[poolId].paidout, \"Pool should be not empty\");\n        require(con.paidout == 0, \"Contribution already paidout\");        \n        require(con.amount > 0, \"Contribution not valid\");   \n        require(con.owner != address(0), \"Owner not valid\"); \n\n        con.paidout = con.amount;\n        pools[poolId].paidout = pools[poolId].paidout.add(con.amount);\n        assert(IERC20(token).transfer(con.owner, con.amount));\n\n        emit Paidout(poolId, _contributionId);\n    }\n\n    //////////\n    // Views\n    //////////\n    // TODO: removed PoolId from input \n    function getContribution(uint _contributionId) public view returns(uint, uint, uint, uint, address) {\n        return (contributions[_contributionId].id,\n            contributions[_contributionId].poolId,\n            contributions[_contributionId].amount,\n            contributions[_contributionId].paidout,\n            contributions[_contributionId].owner);\n    }\n\n    function getPoolContributionsLength(uint _poolId) public view returns(uint) {\n        return pools[_poolId].contributions.length;\n    }\n\n    // ////////\n    // Safety Methods\n    // ////////\n    function () public payable {\n        require(false);\n    }\n\n    function withdrawETH() external onlyOwnerOrSuperOwner {\n        uint balance = address(this).balance;\n        owner.transfer(balance);\n        emit Withdraw(balance);\n    }\n\n    function withdrawTokens(uint _amount, address _token) external onlyOwnerOrSuperOwner {\n        assert(IERC20(_token).transfer(owner, _amount));\n        emit Withdraw(_amount);\n    }\n\n    function pause(bool _paused) external onlyOwnerOrSuperOwner {\n        paused = _paused;\n    }\n\n    function bytesToUint(bytes b) public pure returns(uint256) {\n        uint256 number;\n        for(uint i=0;i<b.length;i++){\n            number = number + uint(b[i])*(2**(8*(b.length-(i+1))));\n        }\n        \n        return number;\n    }\n\n    function getPoolId() private returns (uint) {\n        return POOL_ID = POOL_ID.add(1);\n    }\n\n     function getContributionId() private returns (uint) {\n        return CONTRIBUTION_ID = CONTRIBUTION_ID.add(1);\n    }\n}",
  "sourcePath": "/Users/darius/Documents/Code/git/Aigang/aigang-contracts/contracts/pools/Pools.sol",
  "compiler": {
    "name": "solc",
    "version": "0.4.24+commit.e67f0147.Emscripten.clang"
  },
  "schemaVersion": "2.0.1",
  "updatedAt": "2019-02-06T07:50:52.974Z"
}