{
  "contractName": "PrizeCalculator",
  "abi": [
    {
      "constant": true,
      "inputs": [
        {
          "name": "_distributeTotalTokens",
          "type": "uint256"
        },
        {
          "name": "_collectedTotalTokens",
          "type": "uint256"
        },
        {
          "name": "_contributionTokens",
          "type": "uint256"
        }
      ],
      "name": "calculatePrizeAmount",
      "outputs": [
        {
          "name": "",
          "type": "uint256"
        }
      ],
      "payable": false,
      "stateMutability": "pure",
      "type": "function"
    }
  ],
  "bytecode": "0x608060405234801561001057600080fd5b506102bd806100206000396000f300608060405260043610610041576000357c0100000000000000000000000000000000000000000000000000000000900463ffffffff168063e2bca77e14610046575b600080fd5b34801561005257600080fd5b5061008560048036038101908080359060200190929190803590602001909291908035906020019092919050505061009b565b6040518082815260200191505060405180910390f35b600080600085111515610116576040517f08c379a00000000000000000000000000000000000000000000000000000000081526004018080602001828103825260118152602001807f4e6f742076616c6964203120706172616d00000000000000000000000000000081525060200191505060405180910390fd5b60008411151561018e576040517f08c379a00000000000000000000000000000000000000000000000000000000081526004018080602001828103825260118152602001807f4e6f742076616c6964203220706172616d00000000000000000000000000000081525060200191505060405180910390fd5b600083111515610206576040517f08c379a00000000000000000000000000000000000000000000000000000000081526004018080602001828103825260128152602001807f4e6f742076616c696420203320706172616d000000000000000000000000000081525060200191505060405180910390fd5b6000905061022f84610221878661023c90919063ffffffff16565b61026d90919063ffffffff16565b9050809150509392505050565b60008183029050600083148061025c575081838281151561025957fe5b04145b151561026757600080fd5b92915050565b6000808211151561027d57600080fd5b818381151561028857fe5b049050929150505600a165627a7a72305820794febbe2e17404568bc395a8ddfeea62d9a7eac5b1825cb0b026b9804a7c8a30029",
  "source": "pragma solidity ^0.4.23;\n\nimport \"./../utils/SafeMath.sol\";\nimport \"./../interfaces/IPrizeCalculator.sol\";\n\n\ncontract PrizeCalculator is IPrizeCalculator {\n    using SafeMath for uint;\n     \n    function calculatePrizeAmount(uint _distributeTotalTokens, uint _collectedTotalTokens, uint _contributionTokens)        \n        public\n        pure\n        returns (uint)\n    {\n        require (_distributeTotalTokens > 0, \"Not valid 1 param\");\n        require (_collectedTotalTokens > 0, \"Not valid 2 param\");\n        require (_contributionTokens > 0, \"Not valid  3 param\");\n        \n        uint returnValue = 0;\n        \n        returnValue = _contributionTokens.mul(_distributeTotalTokens).div(_collectedTotalTokens);\n        \n        return returnValue;\n    }\n}",
  "sourcePath": "/Users/darius/Documents/Code/git/Aigang/aigang-contracts/contracts/pools/PrizeCalculator.sol",
  "compiler": {
    "name": "solc",
    "version": "0.4.24+commit.e67f0147.Emscripten.clang"
  },
  "schemaVersion": "2.0.1",
  "updatedAt": "2019-02-06T07:50:52.980Z"
}